{
  "_format": "hh-sol-artifact-1",
  "contractName": "EventManager",
  "sourceName": "contracts/EventManager.sol",
  "abi": [
    {
      "inputs": [],
      "stateMutability": "nonpayable",
      "type": "constructor"
    },
    {
      "inputs": [
        {
          "internalType": "string",
          "name": "eventName",
          "type": "string"
        }
      ],
      "name": "EventPaused",
      "type": "error"
    },
    {
      "inputs": [
        {
          "internalType": "string",
          "name": "eventId",
          "type": "string"
        }
      ],
      "name": "NoEventFound",
      "type": "error"
    },
    {
      "inputs": [
        {
          "internalType": "address",
          "name": "owner",
          "type": "address"
        },
        {
          "internalType": "string",
          "name": "eventId",
          "type": "string"
        }
      ],
      "name": "NoTicketFound",
      "type": "error"
    },
    {
      "inputs": [
        {
          "internalType": "uint256",
          "name": "funds",
          "type": "uint256"
        },
        {
          "internalType": "uint256",
          "name": "requiredFunds",
          "type": "uint256"
        }
      ],
      "name": "NotEnoughFunds",
      "type": "error"
    },
    {
      "inputs": [
        {
          "internalType": "address",
          "name": "owner",
          "type": "address"
        },
        {
          "internalType": "string",
          "name": "eventId",
          "type": "string"
        }
      ],
      "name": "OrganizerCannotBuyTicket",
      "type": "error"
    },
    {
      "inputs": [
        {
          "internalType": "string",
          "name": "eventName",
          "type": "string"
        },
        {
          "internalType": "uint256",
          "name": "eventDate",
          "type": "uint256"
        }
      ],
      "name": "PassedEventDate",
      "type": "error"
    },
    {
      "inputs": [],
      "name": "ReentrancyGuardReentrantCall",
      "type": "error"
    },
    {
      "inputs": [
        {
          "internalType": "string",
          "name": "eventName",
          "type": "string"
        }
      ],
      "name": "SoldOutTickets",
      "type": "error"
    },
    {
      "inputs": [
        {
          "internalType": "address",
          "name": "owner",
          "type": "address"
        },
        {
          "internalType": "string",
          "name": "eventId",
          "type": "string"
        }
      ],
      "name": "TicketAlreadyExists",
      "type": "error"
    },
    {
      "anonymous": false,
      "inputs": [
        {
          "indexed": false,
          "internalType": "string",
          "name": "eventId",
          "type": "string"
        },
        {
          "indexed": false,
          "internalType": "string",
          "name": "eventName",
          "type": "string"
        },
        {
          "indexed": false,
          "internalType": "address",
          "name": "eventCreator",
          "type": "address"
        },
        {
          "indexed": false,
          "internalType": "enum EventManager.EventStatus",
          "name": "status",
          "type": "uint8"
        }
      ],
      "name": "EventStatusUpdated",
      "type": "event"
    },
    {
      "anonymous": false,
      "inputs": [
        {
          "indexed": false,
          "internalType": "address",
          "name": "sender",
          "type": "address"
        },
        {
          "indexed": false,
          "internalType": "bytes",
          "name": "data",
          "type": "bytes"
        }
      ],
      "name": "Log",
      "type": "event"
    },
    {
      "anonymous": false,
      "inputs": [
        {
          "indexed": false,
          "internalType": "string",
          "name": "eventId",
          "type": "string"
        },
        {
          "indexed": false,
          "internalType": "string",
          "name": "eventName",
          "type": "string"
        },
        {
          "indexed": false,
          "internalType": "address",
          "name": "eventCreator",
          "type": "address"
        },
        {
          "indexed": false,
          "internalType": "uint256",
          "name": "eventDate",
          "type": "uint256"
        },
        {
          "indexed": false,
          "internalType": "enum EventManager.EventStatus",
          "name": "status",
          "type": "uint8"
        }
      ],
      "name": "NewEventCreated",
      "type": "event"
    },
    {
      "anonymous": false,
      "inputs": [
        {
          "indexed": false,
          "internalType": "address",
          "name": "accountAddress",
          "type": "address"
        },
        {
          "indexed": false,
          "internalType": "string",
          "name": "eventId",
          "type": "string"
        },
        {
          "indexed": false,
          "internalType": "uint256",
          "name": "ticketPrice",
          "type": "uint256"
        }
      ],
      "name": "NewTicketCreated",
      "type": "event"
    },
    {
      "anonymous": false,
      "inputs": [
        {
          "indexed": false,
          "internalType": "address",
          "name": "accountAddress",
          "type": "address"
        },
        {
          "indexed": false,
          "internalType": "string",
          "name": "eventId",
          "type": "string"
        },
        {
          "indexed": false,
          "internalType": "uint256",
          "name": "refundedAmount",
          "type": "uint256"
        }
      ],
      "name": "TicketCanceled",
      "type": "event"
    },
    {
      "stateMutability": "nonpayable",
      "type": "fallback"
    },
    {
      "inputs": [
        {
          "internalType": "string",
          "name": "_eventId",
          "type": "string"
        },
        {
          "internalType": "string",
          "name": "_fname",
          "type": "string"
        },
        {
          "internalType": "string",
          "name": "_lname",
          "type": "string"
        },
        {
          "internalType": "string",
          "name": "_email",
          "type": "string"
        }
      ],
      "name": "buyTicket",
      "outputs": [],
      "stateMutability": "payable",
      "type": "function"
    },
    {
      "inputs": [
        {
          "internalType": "string",
          "name": "_eventId",
          "type": "string"
        }
      ],
      "name": "cancelTicket",
      "outputs": [],
      "stateMutability": "nonpayable",
      "type": "function"
    },
    {
      "inputs": [
        {
          "internalType": "string",
          "name": "_name",
          "type": "string"
        },
        {
          "internalType": "uint16",
          "name": "_ticketLimit",
          "type": "uint16"
        },
        {
          "internalType": "uint256",
          "name": "_priceInEther",
          "type": "uint256"
        },
        {
          "internalType": "uint256",
          "name": "_eventDate",
          "type": "uint256"
        }
      ],
      "name": "createEvent",
      "outputs": [],
      "stateMutability": "nonpayable",
      "type": "function"
    },
    {
      "inputs": [],
      "name": "getContractBalance",
      "outputs": [
        {
          "internalType": "uint256",
          "name": "",
          "type": "uint256"
        }
      ],
      "stateMutability": "view",
      "type": "function"
    },
    {
      "inputs": [
        {
          "internalType": "string",
          "name": "_eventId",
          "type": "string"
        }
      ],
      "name": "getUserTicket",
      "outputs": [
        {
          "internalType": "bool",
          "name": "",
          "type": "bool"
        },
        {
          "components": [
            {
              "internalType": "address",
              "name": "owner",
              "type": "address"
            },
            {
              "internalType": "string",
              "name": "fname",
              "type": "string"
            },
            {
              "internalType": "string",
              "name": "lname",
              "type": "string"
            },
            {
              "internalType": "string",
              "name": "email",
              "type": "string"
            },
            {
              "internalType": "uint256",
              "name": "paidPrice",
              "type": "uint256"
            },
            {
              "internalType": "uint256",
              "name": "purchased",
              "type": "uint256"
            }
          ],
          "internalType": "struct EventManager.Ticket",
          "name": "",
          "type": "tuple"
        },
        {
          "internalType": "uint16",
          "name": "",
          "type": "uint16"
        }
      ],
      "stateMutability": "view",
      "type": "function"
    },
    {
      "inputs": [
        {
          "internalType": "string",
          "name": "_eventId",
          "type": "string"
        }
      ],
      "name": "listEventParticipants",
      "outputs": [
        {
          "components": [
            {
              "internalType": "address",
              "name": "owner",
              "type": "address"
            },
            {
              "internalType": "string",
              "name": "fname",
              "type": "string"
            },
            {
              "internalType": "string",
              "name": "lname",
              "type": "string"
            },
            {
              "internalType": "string",
              "name": "email",
              "type": "string"
            },
            {
              "internalType": "uint256",
              "name": "paidPrice",
              "type": "uint256"
            },
            {
              "internalType": "uint256",
              "name": "purchased",
              "type": "uint256"
            }
          ],
          "internalType": "struct EventManager.Ticket[]",
          "name": "",
          "type": "tuple[]"
        }
      ],
      "stateMutability": "view",
      "type": "function"
    },
    {
      "inputs": [],
      "name": "listEvents",
      "outputs": [
        {
          "internalType": "string[]",
          "name": "",
          "type": "string[]"
        }
      ],
      "stateMutability": "view",
      "type": "function"
    },
    {
      "inputs": [
        {
          "internalType": "string",
          "name": "_eventId",
          "type": "string"
        }
      ],
      "name": "showEventDetails",
      "outputs": [
        {
          "internalType": "string",
          "name": "eventId",
          "type": "string"
        },
        {
          "internalType": "address",
          "name": "creator",
          "type": "address"
        },
        {
          "internalType": "string",
          "name": "name",
          "type": "string"
        },
        {
          "internalType": "uint16",
          "name": "ticketLimit",
          "type": "uint16"
        },
        {
          "internalType": "uint256",
          "name": "price",
          "type": "uint256"
        },
        {
          "internalType": "uint256",
          "name": "eventDate",
          "type": "uint256"
        },
        {
          "internalType": "enum EventManager.EventStatus",
          "name": "status",
          "type": "uint8"
        }
      ],
      "stateMutability": "view",
      "type": "function"
    },
    {
      "inputs": [
        {
          "internalType": "string",
          "name": "_eventId",
          "type": "string"
        },
        {
          "internalType": "enum EventManager.EventStatus",
          "name": "_status",
          "type": "uint8"
        }
      ],
      "name": "togglePauseEventRegistration",
      "outputs": [],
      "stateMutability": "nonpayable",
      "type": "function"
    }
  ],
  "bytecode": "0x608060405234801561001057600080fd5b50600160008190555033600160006101000a81548173ffffffffffffffffffffffffffffffffffffffff021916908373ffffffffffffffffffffffffffffffffffffffff16021790555060018060146101000a81548161ffff021916908361ffff16021790555062015180600281905550613506806100906000396000f3fe60806040526004361061008a5760003560e01c80636f9fb98a116100595780636f9fb98a146101aa5780638ff8153c146101d5578063a5ce9d14146101fe578063c755ec3c1461021a578063fb011d6d146102435761008b565b806316118dd8146100d6578063435e2eba146101135780634614b5371461013c57806355d27a5c1461017f5761008b565b5b34801561009757600080fd5b507f3d4342015303e7c1e55fa1b6a8c1391f56e7290b109bb8b9aa858996910bae07336000366040516100cc93929190611f70565b60405180910390a1005b3480156100e257600080fd5b506100fd60048036038101906100f891906120dc565b610282565b60405161010a9190612325565b60405180910390f35b34801561011f57600080fd5b5061013a6004803603810190610135919061236c565b6105fc565b005b34801561014857600080fd5b50610163600480360381019061015e91906120dc565b61084d565b60405161017697969594939291906124b5565b60405180910390f35b34801561018b57600080fd5b50610194610a9e565b6040516101a191906125f4565b60405180910390f35b3480156101b657600080fd5b506101bf610b77565b6040516101cc9190612616565b60405180910390f35b3480156101e157600080fd5b506101fc60048036038101906101f79190612689565b610c0f565b005b6102186004803603810190610213919061270c565b610ed9565b005b34801561022657600080fd5b50610241600480360381019061023c91906120dc565b6113d1565b005b34801561024f57600080fd5b5061026a600480360381019061026591906120dc565b61171d565b60405161027993929190612895565b60405180910390f35b6060600160009054906101000a900473ffffffffffffffffffffffffffffffffffffffff1673ffffffffffffffffffffffffffffffffffffffff163373ffffffffffffffffffffffffffffffffffffffff1614610314576040517f08c379a000000000000000000000000000000000000000000000000000000000815260040161030b90612945565b60405180910390fd5b6000825111610358576040517f08c379a000000000000000000000000000000000000000000000000000000000815260040161034f906129b1565b60405180910390fd5b600060048360405161036a9190612a0d565b9081526020016040518091039020905080600701805480602002602001604051908101604052809291908181526020016000905b828210156105f057838290600052602060002090600602016040518060c00160405290816000820160009054906101000a900473ffffffffffffffffffffffffffffffffffffffff1673ffffffffffffffffffffffffffffffffffffffff1673ffffffffffffffffffffffffffffffffffffffff16815260200160018201805461042790612a53565b80601f016020809104026020016040519081016040528092919081815260200182805461045390612a53565b80156104a05780601f10610475576101008083540402835291602001916104a0565b820191906000526020600020905b81548152906001019060200180831161048357829003601f168201915b505050505081526020016002820180546104b990612a53565b80601f01602080910402602001604051908101604052809291908181526020018280546104e590612a53565b80156105325780601f1061050757610100808354040283529160200191610532565b820191906000526020600020905b81548152906001019060200180831161051557829003601f168201915b5050505050815260200160038201805461054b90612a53565b80601f016020809104026020016040519081016040528092919081815260200182805461057790612a53565b80156105c45780601f10610599576101008083540402835291602001916105c4565b820191906000526020600020905b8154815290600101906020018083116105a757829003601f168201915b50505050508152602001600482015481526020016005820154815250508152602001906001019061039e565b50505050915050919050565b600160009054906101000a900473ffffffffffffffffffffffffffffffffffffffff1673ffffffffffffffffffffffffffffffffffffffff163373ffffffffffffffffffffffffffffffffffffffff161461068c576040517f08c379a000000000000000000000000000000000000000000000000000000000815260040161068390612945565b60405180910390fd5b600060048360405161069e9190612a0d565b90815260200160405180910390209050600073ffffffffffffffffffffffffffffffffffffffff168160010160009054906101000a900473ffffffffffffffffffffffffffffffffffffffff1673ffffffffffffffffffffffffffffffffffffffff1603610741576040517f08c379a000000000000000000000000000000000000000000000000000000000815260040161073890612ad0565b60405180910390fd5b8160018111156107545761075361243e565b5b8160060160009054906101000a900460ff1660018111156107785761077761243e565b5b036107b8576040517f08c379a00000000000000000000000000000000000000000000000000000000081526004016107af90612b3c565b60405180910390fd5b818160060160006101000a81548160ff021916908360018111156107df576107de61243e565b5b02179055507f5944449e11c946cb666ed8bac5e12a43a756abb8655384aabafcf94f952b211c83826002018360010160009054906101000a900473ffffffffffffffffffffffffffffffffffffffff16856040516108409493929190612bf5565b60405180910390a1505050565b606060006060600080600080600060048960405161086b9190612a0d565b90815260200160405180910390209050600073ffffffffffffffffffffffffffffffffffffffff168160010160009054906101000a900473ffffffffffffffffffffffffffffffffffffffff1673ffffffffffffffffffffffffffffffffffffffff160361091057886040517ffbbfd0b20000000000000000000000000000000000000000000000000000000081526004016109079190612c48565b60405180910390fd5b806000018160010160009054906101000a900473ffffffffffffffffffffffffffffffffffffffff16826002018360030160009054906101000a900461ffff16846005015485600401548660060160009054906101000a900460ff1686805461097890612a53565b80601f01602080910402602001604051908101604052809291908181526020018280546109a490612a53565b80156109f15780601f106109c6576101008083540402835291602001916109f1565b820191906000526020600020905b8154815290600101906020018083116109d457829003601f168201915b50505050509650848054610a0490612a53565b80601f0160208091040260200160405190810160405280929190818152602001828054610a3090612a53565b8015610a7d5780601f10610a5257610100808354040283529160200191610a7d565b820191906000526020600020905b815481529060010190602001808311610a6057829003601f168201915b50505050509450975097509750975097509750975050919395979092949650565b60606003805480602002602001604051908101604052809291908181526020016000905b82821015610b6e578382906000526020600020018054610ae190612a53565b80601f0160208091040260200160405190810160405280929190818152602001828054610b0d90612a53565b8015610b5a5780601f10610b2f57610100808354040283529160200191610b5a565b820191906000526020600020905b815481529060010190602001808311610b3d57829003601f168201915b505050505081526020019060010190610ac2565b50505050905090565b6000600160009054906101000a900473ffffffffffffffffffffffffffffffffffffffff1673ffffffffffffffffffffffffffffffffffffffff163373ffffffffffffffffffffffffffffffffffffffff1614610c09576040517f08c379a0000000000000000000000000000000000000000000000000000000008152600401610c0090612945565b60405180910390fd5b47905090565b600160009054906101000a900473ffffffffffffffffffffffffffffffffffffffff1673ffffffffffffffffffffffffffffffffffffffff163373ffffffffffffffffffffffffffffffffffffffff1614610c9f576040517f08c379a0000000000000000000000000000000000000000000000000000000008152600401610c9690612945565b60405180910390fd5b804210610ce1576040517f08c379a0000000000000000000000000000000000000000000000000000000008152600401610cd890612d02565b60405180910390fd5b6000610d00600160149054906101000a900461ffff1661ffff16611bb7565b604051602001610d109190612d6e565b60405160208183030381529060405290506000670de0b6b3a764000084610d379190612dbf565b90506000600483604051610d4b9190612a0d565b9081526020016040518091039020905082816000019081610d6c9190612f98565b50338160010160006101000a81548173ffffffffffffffffffffffffffffffffffffffff021916908373ffffffffffffffffffffffffffffffffffffffff16021790555086816002019081610dc19190612f98565b50858160030160006101000a81548161ffff021916908361ffff16021790555081816005018190555083816004018190555060008160060160006101000a81548160ff02191690836001811115610e1b57610e1a61243e565b5b0217905550600383908060018154018082558091505060019003906000526020600020016000909190919091509081610e549190612f98565b506001601481819054906101000a900461ffff1680929190610e759061306a565b91906101000a81548161ffff021916908361ffff160217905550507fafaa72c63c1e84a3907772108a4f828d6ce9266cc8c1a898219d9a298d23f707838833876000604051610ec8959493929190613094565b60405180910390a150505050505050565b610ee1611c85565b6000600485604051610ef39190612a0d565b908152602001604051809103902090506000610f0e8661171d565b50509050600073ffffffffffffffffffffffffffffffffffffffff168260010160009054906101000a900473ffffffffffffffffffffffffffffffffffffffff1673ffffffffffffffffffffffffffffffffffffffff1603610fa757856040517ffbbfd0b2000000000000000000000000000000000000000000000000000000008152600401610f9e9190612c48565b60405180910390fd5b8160010160009054906101000a900473ffffffffffffffffffffffffffffffffffffffff1673ffffffffffffffffffffffffffffffffffffffff163373ffffffffffffffffffffffffffffffffffffffff160361103d5733866040517f4ea9ca4d0000000000000000000000000000000000000000000000000000000081526004016110349291906130f5565b60405180910390fd5b80156110825733866040517f299231690000000000000000000000000000000000000000000000000000000081526004016110799291906130f5565b60405180910390fd5b42826004015410156110d4578160020182600401546040517fbb6650470000000000000000000000000000000000000000000000000000000081526004016110cb929190613125565b60405180910390fd5b6001808111156110e7576110e661243e565b5b8260060160009054906101000a900460ff16600181111561110b5761110a61243e565b5b0361115057816002016040517fd2119d0d0000000000000000000000000000000000000000000000000000000081526004016111479190613155565b60405180910390fd5b8160030160009054906101000a900461ffff1661ffff168260070180549050106111b457816002016040517f37c3aece0000000000000000000000000000000000000000000000000000000081526004016111ab9190613155565b60405180910390fd5b8160050154341015611203573482600501546040517f8c9053680000000000000000000000000000000000000000000000000000000081526004016111fa929190613177565b60405180910390fd5b60006040518060c001604052803373ffffffffffffffffffffffffffffffffffffffff168152602001878152602001868152602001858152602001846005015481526020014281525090508260070181908060018154018082558091505060019003906000526020600020906006020160009091909190915060008201518160000160006101000a81548173ffffffffffffffffffffffffffffffffffffffff021916908373ffffffffffffffffffffffffffffffffffffffff16021790555060208201518160010190816112d89190612f98565b5060408201518160020190816112ee9190612f98565b5060608201518160030190816113049190612f98565b506080820151816004015560a0820151816005015550507f1a29de37bacaa8d802c3a52e8d4f4bc6d583e65fee9fdb31cde5cefd78e2811533846000018560050154604051611355939291906131a0565b60405180910390a182600501543411156113c0573373ffffffffffffffffffffffffffffffffffffffff166108fc84600501543461139391906131de565b9081150290604051600060405180830381858888f193505050501580156113be573d6000803e3d6000fd5b505b5050506113cb611ccb565b50505050565b6113d9611c85565b60008060006113e78461171d565b925092509250826114315733846040517fe829414e0000000000000000000000000000000000000000000000000000000081526004016114289291906130f5565b60405180910390fd5b60006004856040516114439190612a0d565b9081526020016040518091039020905060008160070190506000600254836004015461146f91906131de565b9050804211156114b4576040517f08c379a00000000000000000000000000000000000000000000000000000000081526004016114ab90613284565b60405180910390fd5b60008280549050905082600184805490506114cf91906131de565b815481106114e0576114df6132a4565b5b9060005260206000209060060201838661ffff1681548110611505576115046132a4565b5b90600052602060002090600602016000820160009054906101000a900473ffffffffffffffffffffffffffffffffffffffff168160000160006101000a81548173ffffffffffffffffffffffffffffffffffffffff021916908373ffffffffffffffffffffffffffffffffffffffff1602179055506001820181600101908161158e91906132e9565b50600282018160020190816115a391906132e9565b50600382018160030190816115b891906132e9565b506004820154816004015560058201548160050155905050828054806115e1576115e06133d1565b5b6001900381819060005260206000209060060201600080820160006101000a81549073ffffffffffffffffffffffffffffffffffffffff021916905560018201600061162d9190611e28565b60028201600061163d9190611e28565b60038201600061164d9190611e28565b6004820160009055600582016000905550509055600183805490506116729190613400565b811461168157611680613434565b5b3373ffffffffffffffffffffffffffffffffffffffff166108fc87608001519081150290604051600060405180830381858888f193505050501580156116cb573d6000803e3d6000fd5b507f2fe4f5af5e3cf1cdaf87a19aa13db619880a28c32ae463982dd07933b5c2f58e3389886080015160405161170393929190613463565b60405180910390a15050505050505061171a611ccb565b50565b6000611727611e68565b60008060048560405161173a9190612a0d565b90815260200160405180910390209050600073ffffffffffffffffffffffffffffffffffffffff168160010160009054906101000a900473ffffffffffffffffffffffffffffffffffffffff1673ffffffffffffffffffffffffffffffffffffffff16036118255760006040518060c00160405280600073ffffffffffffffffffffffffffffffffffffffff168152602001604051806020016040528060008152508152602001604051806020016040528060008152508152602001604051806020016040528060008152508152602001600081526020016000815250600093509350935050611bb0565b60005b81600701805490508161ffff161015611b30573373ffffffffffffffffffffffffffffffffffffffff16826007018261ffff168154811061186c5761186b6132a4565b5b906000526020600020906006020160000160009054906101000a900473ffffffffffffffffffffffffffffffffffffffff1673ffffffffffffffffffffffffffffffffffffffff1603611b1f576001826007018261ffff16815481106118d5576118d46132a4565b5b906000526020600020906006020182816040518060c00160405290816000820160009054906101000a900473ffffffffffffffffffffffffffffffffffffffff1673ffffffffffffffffffffffffffffffffffffffff1673ffffffffffffffffffffffffffffffffffffffff16815260200160018201805461195690612a53565b80601f016020809104026020016040519081016040528092919081815260200182805461198290612a53565b80156119cf5780601f106119a4576101008083540402835291602001916119cf565b820191906000526020600020905b8154815290600101906020018083116119b257829003601f168201915b505050505081526020016002820180546119e890612a53565b80601f0160208091040260200160405190810160405280929190818152602001828054611a1490612a53565b8015611a615780601f10611a3657610100808354040283529160200191611a61565b820191906000526020600020905b815481529060010190602001808311611a4457829003601f168201915b50505050508152602001600382018054611a7a90612a53565b80601f0160208091040260200160405190810160405280929190818152602001828054611aa690612a53565b8015611af35780601f10611ac857610100808354040283529160200191611af3565b820191906000526020600020905b815481529060010190602001808311611ad657829003601f168201915b505050505081526020016004820154815260200160058201548152505091509450945094505050611bb0565b80611b299061306a565b9050611828565b5060006040518060c00160405280600073ffffffffffffffffffffffffffffffffffffffff1681526020016040518060200160405280600081525081526020016040518060200160405280600081525081526020016040518060200160405280600081525081526020016000815260200160008152506000935093509350505b9193909250565b606060006001611bc684611cd5565b01905060008167ffffffffffffffff811115611be557611be4611fc0565b5b6040519080825280601f01601f191660200182016040528015611c175781602001600182028036833780820191505090505b509050600082602001820190505b600115611c7a578080600190039150507f3031323334353637383961626364656600000000000000000000000000000000600a86061a8153600a8581611c6e57611c6d6134a1565b5b04945060008503611c25575b819350505050919050565b600260005403611cc1576040517f3ee5aeb500000000000000000000000000000000000000000000000000000000815260040160405180910390fd5b6002600081905550565b6001600081905550565b600080600090507a184f03e93ff9f4daa797ed6e38ed64bf6a1f0100000000000000008310611d33577a184f03e93ff9f4daa797ed6e38ed64bf6a1f0100000000000000008381611d2957611d286134a1565b5b0492506040810190505b6d04ee2d6d415b85acef81000000008310611d70576d04ee2d6d415b85acef81000000008381611d6657611d656134a1565b5b0492506020810190505b662386f26fc100008310611d9f57662386f26fc100008381611d9557611d946134a1565b5b0492506010810190505b6305f5e1008310611dc8576305f5e1008381611dbe57611dbd6134a1565b5b0492506008810190505b6127108310611ded576127108381611de357611de26134a1565b5b0492506004810190505b60648310611e105760648381611e0657611e056134a1565b5b0492506002810190505b600a8310611e1f576001810190505b80915050919050565b508054611e3490612a53565b6000825580601f10611e465750611e65565b601f016020900490600052602060002090810190611e649190611eb4565b5b50565b6040518060c00160405280600073ffffffffffffffffffffffffffffffffffffffff16815260200160608152602001606081526020016060815260200160008152602001600081525090565b5b80821115611ecd576000816000905550600101611eb5565b5090565b600073ffffffffffffffffffffffffffffffffffffffff82169050919050565b6000611efc82611ed1565b9050919050565b611f0c81611ef1565b82525050565b600082825260208201905092915050565b82818337600083830152505050565b6000601f19601f8301169050919050565b6000611f4f8385611f12565b9350611f5c838584611f23565b611f6583611f32565b840190509392505050565b6000604082019050611f856000830186611f03565b8181036020830152611f98818486611f43565b9050949350505050565b6000604051905090565b600080fd5b600080fd5b600080fd5b600080fd5b7f4e487b7100000000000000000000000000000000000000000000000000000000600052604160045260246000fd5b611ff882611f32565b810181811067ffffffffffffffff8211171561201757612016611fc0565b5b80604052505050565b600061202a611fa2565b90506120368282611fef565b919050565b600067ffffffffffffffff82111561205657612055611fc0565b5b61205f82611f32565b9050602081019050919050565b600061207f61207a8461203b565b612020565b90508281526020810184848401111561209b5761209a611fbb565b5b6120a6848285611f23565b509392505050565b600082601f8301126120c3576120c2611fb6565b5b81356120d384826020860161206c565b91505092915050565b6000602082840312156120f2576120f1611fac565b5b600082013567ffffffffffffffff8111156121105761210f611fb1565b5b61211c848285016120ae565b91505092915050565b600081519050919050565b600082825260208201905092915050565b6000819050602082019050919050565b61215a81611ef1565b82525050565b600081519050919050565b600082825260208201905092915050565b60005b8381101561219a57808201518184015260208101905061217f565b60008484015250505050565b60006121b182612160565b6121bb818561216b565b93506121cb81856020860161217c565b6121d481611f32565b840191505092915050565b6000819050919050565b6121f2816121df565b82525050565b600060c0830160008301516122106000860182612151565b506020830151848203602086015261222882826121a6565b9150506040830151848203604086015261224282826121a6565b9150506060830151848203606086015261225c82826121a6565b915050608083015161227160808601826121e9565b5060a083015161228460a08601826121e9565b508091505092915050565b600061229b83836121f8565b905092915050565b6000602082019050919050565b60006122bb82612125565b6122c58185612130565b9350836020820285016122d785612141565b8060005b8581101561231357848403895281516122f4858261228f565b94506122ff836122a3565b925060208a019950506001810190506122db565b50829750879550505050505092915050565b6000602082019050818103600083015261233f81846122b0565b905092915050565b6002811061235457600080fd5b50565b60008135905061236681612347565b92915050565b6000806040838503121561238357612382611fac565b5b600083013567ffffffffffffffff8111156123a1576123a0611fb1565b5b6123ad858286016120ae565b92505060206123be85828601612357565b9150509250929050565b600082825260208201905092915050565b60006123e482612160565b6123ee81856123c8565b93506123fe81856020860161217c565b61240781611f32565b840191505092915050565b600061ffff82169050919050565b61242981612412565b82525050565b612438816121df565b82525050565b7f4e487b7100000000000000000000000000000000000000000000000000000000600052602160045260246000fd5b6002811061247e5761247d61243e565b5b50565b600081905061248f8261246d565b919050565b600061249f82612481565b9050919050565b6124af81612494565b82525050565b600060e08201905081810360008301526124cf818a6123d9565b90506124de6020830189611f03565b81810360408301526124f081886123d9565b90506124ff6060830187612420565b61250c608083018661242f565b61251960a083018561242f565b61252660c08301846124a6565b98975050505050505050565b600081519050919050565b600082825260208201905092915050565b6000819050602082019050919050565b600061256a83836121a6565b905092915050565b6000602082019050919050565b600061258a82612532565b612594818561253d565b9350836020820285016125a68561254e565b8060005b858110156125e257848403895281516125c3858261255e565b94506125ce83612572565b925060208a019950506001810190506125aa565b50829750879550505050505092915050565b6000602082019050818103600083015261260e818461257f565b905092915050565b600060208201905061262b600083018461242f565b92915050565b61263a81612412565b811461264557600080fd5b50565b60008135905061265781612631565b92915050565b612666816121df565b811461267157600080fd5b50565b6000813590506126838161265d565b92915050565b600080600080608085870312156126a3576126a2611fac565b5b600085013567ffffffffffffffff8111156126c1576126c0611fb1565b5b6126cd878288016120ae565b94505060206126de87828801612648565b93505060406126ef87828801612674565b925050606061270087828801612674565b91505092959194509250565b6000806000806080858703121561272657612725611fac565b5b600085013567ffffffffffffffff81111561274457612743611fb1565b5b612750878288016120ae565b945050602085013567ffffffffffffffff81111561277157612770611fb1565b5b61277d878288016120ae565b935050604085013567ffffffffffffffff81111561279e5761279d611fb1565b5b6127aa878288016120ae565b925050606085013567ffffffffffffffff8111156127cb576127ca611fb1565b5b6127d7878288016120ae565b91505092959194509250565b60008115159050919050565b6127f8816127e3565b82525050565b600060c0830160008301516128166000860182612151565b506020830151848203602086015261282e82826121a6565b9150506040830151848203604086015261284882826121a6565b9150506060830151848203606086015261286282826121a6565b915050608083015161287760808601826121e9565b5060a083015161288a60a08601826121e9565b508091505092915050565b60006060820190506128aa60008301866127ef565b81810360208301526128bc81856127fe565b90506128cb6040830184612420565b949350505050565b7f4163636573732064656e6965642120596f75206d75737420626520746865206f60008201527f776e6572206f66207468697320636f6e74726163742e00000000000000000000602082015250565b600061292f6036836123c8565b915061293a826128d3565b604082019050919050565b6000602082019050818103600083015261295e81612922565b9050919050565b7f4576656e742049442063616e6e6f7420626520656d7074790000000000000000600082015250565b600061299b6018836123c8565b91506129a682612965565b602082019050919050565b600060208201905081810360008301526129ca8161298e565b9050919050565b600081905092915050565b60006129e782612160565b6129f181856129d1565b9350612a0181856020860161217c565b80840191505092915050565b6000612a1982846129dc565b915081905092915050565b7f4e487b7100000000000000000000000000000000000000000000000000000000600052602260045260246000fd5b60006002820490506001821680612a6b57607f821691505b602082108103612a7e57612a7d612a24565b5b50919050565b7f4e6f206576656e74207769746820746861742049442077617320666f756e6400600082015250565b6000612aba601f836123c8565b9150612ac582612a84565b602082019050919050565b60006020820190508181036000830152612ae981612aad565b9050919050565b7f546861742073746174757320697320616c726561647920736574000000000000600082015250565b6000612b26601a836123c8565b9150612b3182612af0565b602082019050919050565b60006020820190508181036000830152612b5581612b19565b9050919050565b60008190508160005260206000209050919050565b60008154612b7e81612a53565b612b8881866123c8565b94506001821660008114612ba35760018114612bb957612bec565b60ff198316865281151560200286019350612bec565b612bc285612b5c565b60005b83811015612be457815481890152600182019150602081019050612bc5565b808801955050505b50505092915050565b60006080820190508181036000830152612c0f81876123d9565b90508181036020830152612c238186612b71565b9050612c326040830185611f03565b612c3f60608301846124a6565b95945050505050565b60006020820190508181036000830152612c6281846123d9565b905092915050565b7f43616e6e6f742073657420612074696d657374616d7020696e2074686520706160008201527f73742e2054727920616761696e2077697468206120554e49582054696d65737460208201527f616d7020696e20746865206675747572652e0000000000000000000000000000604082015250565b6000612cec6052836123c8565b9150612cf782612c6a565b606082019050919050565b60006020820190508181036000830152612d1b81612cdf565b9050919050565b7f6576000000000000000000000000000000000000000000000000000000000000600082015250565b6000612d586002836129d1565b9150612d6382612d22565b600282019050919050565b6000612d7982612d4b565b9150612d8582846129dc565b915081905092915050565b7f4e487b7100000000000000000000000000000000000000000000000000000000600052601160045260246000fd5b6000612dca826121df565b9150612dd5836121df565b9250828202612de3816121df565b91508282048414831517612dfa57612df9612d90565b5b5092915050565b60006020601f8301049050919050565b600082821b905092915050565b600060088302612e4e7fffffffffffffffffffffffffffffffffffffffffffffffffffffffffffffffff82612e11565b612e588683612e11565b95508019841693508086168417925050509392505050565b6000819050919050565b6000612e95612e90612e8b846121df565b612e70565b6121df565b9050919050565b6000819050919050565b612eaf83612e7a565b612ec3612ebb82612e9c565b848454612e1e565b825550505050565b600090565b612ed8612ecb565b612ee3818484612ea6565b505050565b5b81811015612f0757612efc600082612ed0565b600181019050612ee9565b5050565b601f821115612f4c57612f1d81612b5c565b612f2684612e01565b81016020851015612f35578190505b612f49612f4185612e01565b830182612ee8565b50505b505050565b600082821c905092915050565b6000612f6f60001984600802612f51565b1980831691505092915050565b6000612f888383612f5e565b9150826002028217905092915050565b612fa182612160565b67ffffffffffffffff811115612fba57612fb9611fc0565b5b612fc48254612a53565b612fcf828285612f0b565b600060209050601f8311600181146130025760008415612ff0578287015190505b612ffa8582612f7c565b865550613062565b601f19841661301086612b5c565b60005b8281101561303857848901518255600182019150602085019450602081019050613013565b868310156130555784890151613051601f891682612f5e565b8355505b6001600288020188555050505b505050505050565b600061307582612412565b915061ffff820361308957613088612d90565b5b600182019050919050565b600060a08201905081810360008301526130ae81886123d9565b905081810360208301526130c281876123d9565b90506130d16040830186611f03565b6130de606083018561242f565b6130eb60808301846124a6565b9695505050505050565b600060408201905061310a6000830185611f03565b818103602083015261311c81846123d9565b90509392505050565b6000604082019050818103600083015261313f8185612b71565b905061314e602083018461242f565b9392505050565b6000602082019050818103600083015261316f8184612b71565b905092915050565b600060408201905061318c600083018561242f565b613199602083018461242f565b9392505050565b60006060820190506131b56000830186611f03565b81810360208301526131c78185612b71565b90506131d6604083018461242f565b949350505050565b60006131e9826121df565b91506131f4836121df565b925082820390508181111561320c5761320b612d90565b5b92915050565b7f536f7272792c20746865206c617374206461746520666f72206120726566756e60008201527f64206861766520706173736564203a2800000000000000000000000000000000602082015250565b600061326e6030836123c8565b915061327982613212565b604082019050919050565b6000602082019050818103600083015261329d81613261565b9050919050565b7f4e487b7100000000000000000000000000000000000000000000000000000000600052603260045260246000fd5b6000815490506132e281612a53565b9050919050565b8181036132f75750506133cf565b613300826132d3565b67ffffffffffffffff81111561331957613318611fc0565b5b6133238254612a53565b61332e828285612f0b565b6000601f83116001811461335d576000841561334b578287015490505b6133558582612f7c565b8655506133c8565b601f19841661336b87612b5c565b965061337686612b5c565b60005b8281101561339e57848901548255600182019150600185019450602081019050613379565b868310156133bb57848901546133b7601f891682612f5e565b8355505b6001600288020188555050505b5050505050505b565b7f4e487b7100000000000000000000000000000000000000000000000000000000600052603160045260246000fd5b600061340b826121df565b9150613416836121df565b925082820190508082111561342e5761342d612d90565b5b92915050565b7f4e487b7100000000000000000000000000000000000000000000000000000000600052600160045260246000fd5b60006060820190506134786000830186611f03565b818103602083015261348a81856123d9565b9050613499604083018461242f565b949350505050565b7f4e487b7100000000000000000000000000000000000000000000000000000000600052601260045260246000fdfea264697066735822122019dc51726897c5f9dd4cf98b90b397eef75a0b10553338e42b0f86888996c93b64736f6c63430008180033",
  "linkReferences": {},
  "deployedLinkReferences": {}
}